:020000040800F2
:1000000020050020DD020008151400081714000860
:100010001B1400081F14000823140008000000002F
:10002000000000000000000000000000271400088D
:1000300029140008000000002B14000847140008D1
:10004000F7020008F7020008F7020008F7020008AC
:10005000F7020008F7020008F7020008F70200089C
:10006000F70200084F0F0008F7020008F702000827
:10007000F7020008F7020008F7020008F70200087C
:10008000F7020008F7020008F7020008F70200086C
:10009000F7020008F7020008F7020008670F0008DF
:1000A000F7020008F7020008F7020008F70200084C
:1000B000F7020008F702000805050008F70200082B
:1000C000F7020008F7020008F7020008F70200082C
:1000D000F7020008B10B0008F7020008F702000859
:1000E000F7020008F7020008F7020008DFF80CD05A
:1000F00003F046F8004800477D1300082005002063
:100100000CB50020019000906B48006840F48030EE
:100110006949086000BF6848006800F4003000903A
:100120000198401C0190009820B94FF6FF7101988A
:100130008842F0D16048006800F4003010B101201E
:10014000009001E0002000900098012841D15B4818
:10015000006840F01000594908600846006820F027
:10016000030008600846006840F00100086052483B
:100170004068514948600846406848600846406801
:1001800048600846406820F47C1048600846406893
:1001900040F4F81048600846006840F0807008603D
:1001A00000BF4548006800F000700028F9D04248C0
:1001B000406820F00300404948600846406840F02D
:1001C0000200486000BF3C48406800F00C0008286E
:1001D000F9D10CBD10B5FFF793FF10BD10B536482F
:1001E000006840F00100344908600846406834491E
:1001F00008403149486008460068324908402E49A5
:1002000008600846006820F48020086008464068BE
:1002100020F4FE0048604FF41F008860FFF7DAFF0B
:100220004FF000602849086010BD10B50021002083
:100230000022214B5B6803F00C0121B1042906D098
:10024000082928D107E0214B214C236027E01F4BD0
:100250001F4C236023E0184B5B6803F47010164BAF
:100260005B6803F48032022303EB904022B9194B00
:100270004343174C23600DE00F4B5B6803F40033DE
:1002800023B1144B4343124C236003E00F4B434311
:100290000F4C236003E00D4B0D4C236000BF00BFEB
:1002A000054B5B68C3F303130B4CE15C084B1B6805
:1002B000CB40074C236010BD0010024000200240DC
:1002C0000000FFF8FFFFF6FE08ED00E000127A00E4
:1002D0000000002000093D0004000020064880477F
:1002E00006480047FEE7FEE7FEE7FEE7FEE7FEE71B
:1002F000FEE7FEE7FEE7FEE7DD010008ED0000088F
:1003000070B5044601F0A5F8054600BF01F0A1F85C
:10031000401B04EB4401C1EBC411B0EBC10FF5D39A
:1003200070BD70B5044601F094F8054600BF01F0B9
:1003300090F8401BA042FAD370BD000008B5684891
:10034000806940F00400664988610846806940F091
:10035000080088610846806940F001008861012139
:10036000084601F0F2FC01215E4801F002FB5E4804
:1003700000685E4908405C490860084600685C49BE
:1003800008435949086058480830006840F4405014
:100390005549083108605748006857490840554991
:1003A00008600846006855490843524908605148AA
:1003B0000C30006840F0B0004E490C31086040201D
:1003C000ADF8000048208DF8030003208DF80200EE
:1003D0006946484801F0FCF94348006820F4702061
:1003E0004149086008460068454908433E4908609D
:1003F0003D480830006840F480503B4908310860AF
:100400000815ADF8000010208DF8030003208DF8CA
:1004100002006946374801F0DBF94FF48061354846
:1004200001F083FA8021334801F081FA4FF48051C2
:100430002D48001F01F07BFA10212E4801F077FAB9
:1004400020212C4801F073FA08BD70B505460C4612
:10045000062D42D2DFE805F04103121E2A36012C98
:1004600005D121032048001F01F05FFA05E04FF499
:1004700080511D48001F01F05AFA2EE0012C04D1D2
:1004800010211C4801F051FA03E01021194801F035
:100490004EFA22E0012C04D12021164801F045FA41
:1004A00003E02021134801F042FA16E0012C04D1A8
:1004B0004021104801F039FA03E040210D4801F0D5
:1004C00036FA0AE024B180210A4801F02EFA03E04E
:1004D0008021084801F02BFA00BF00BF70BD00006A
:1004E000001002400004300004080140FFFFF0F05B
:1004F00000000303000C0140FFFF000F0000333039
:100500000000010110B501213C4802F07CFB0028ED
:1005100037D03B480088401C80B2394908806428A5
:1005200004D1002008800120364908803648008820
:10053000401C80B234490880142804D1002008806F
:1005400001203249088032480088401C80B230497E
:1005500008800C2804D10020088001202D49088043
:100560002D480088401C80B22B4908800A2804D1FD
:100570000020088001202949088001211F4802F03D
:1005800053FB10BD3EB505460C460121042001F089
:10059000E9FB1A4801F03EFCA0B2ADF80400681E69
:1005A00080B2ADF800000020ADF80600ADF8020002
:1005B0006946124801F002FD0121104802F020FBBB
:1005C000012211460D4802F070F801210B4802F09B
:1005D00051F83EBD08B54FF4A06001F02BF81E2085
:1005E0008DF8000001208DF801008DF802008DF8D3
:1005F0000300684601F023F808BD00000008004031
:10060000140000201C000020160000201E00002006
:1006100018000020200000201A00002022000020E6
:1006200070B500248021FE4801F081F9072510E013
:1006300064002021FA4801F078F94021F84801F0DF
:100640005AF908B144F001042021F54801F06FF98E
:100650006D1E002DECDA204670BD70B504460025F5
:100660001FE02021EE4801F062F904F0800020B183
:100670008021EB4801F059F903E08021E84801F0BE
:1006800056F96006040E2021E54801F04EF940219C
:10069000E34801F030F9012801D144F00104681C5D
:1006A000C5B2082DDDDB2021DD4801F040F92046F0
:1006B00070BD2DE9F04107460D4616461021D84879
:1006C00001F035F93846FFF7C8FF002405E00020A7
:1006D000FFF7C3FF2855601CC4B2B442F7DB1021FA
:1006E000CF4801F022F9BDE8F0812DE9F04107463D
:1006F0000D4616461021CA4801F019F90024384663
:10070000FFF7ABFF00BF04E0285DFFF7A6FF601C0A
:10071000C4B2B442F8DB00241021C14801F005F94D
:10072000BDE8F0811FB5BFA103C9CDE902010522D3
:1007300002A93020FFF7D9FF052269461020FFF7F4
:10074000B8FF9DF80010B9A002F02CFD1FBD70B5D8
:1007500005460C461021B24801F0E9F82846FFF79B
:100760007CFF2046FFF779FF1021AD4801F0DDF84E
:1007700070BD70B504461021A94801F0D8F8204694
:10078000FFF76BFF0020FFF768FF05461021A44824
:1007900001F0CBF8284670BD10B54FF40041A048D9
:1007A00001F0C5F88E212020FFF7D1FF4FF4004162
:1007B0009B4801F0BAF80A20FFF7B3FD10BD10B551
:1007C0004FF40041964801F0B2F88F212020FFF746
:1007D000BEFF4FF40041924801F0A7F80220FFF756
:1007E000A0FD10BD10B50720FFF7C3FF00F0700497
:1007F000204610BD10B570212720FFF7A8FF10BDBF
:1008000010B50021E120FFF7A2FF0021E220FFF751
:100810009EFF10BD10B504464FF40041804801F022
:1008200086F88548047021462520FFF790FF10BD0B
:100830007CB504460E46814903C9CDE90001324624
:100840002146A020FFF751FF00BF4FF4006174481C
:1008500001F051F80028F8D12078401C20700720C2
:10086000FFF787FF0546602D09D1324669466120B2
:10087000FFF71FFF9DF8001071A002F093FC00210C
:10088000E120FFF764FF0021E220FFF760FF702105
:100890002720FFF75CFF7CBD70B504460D4600BF06
:1008A0004FF400615E4801F026F80028F8D1664850
:1008B0000078401E644908702A4621466120FFF7EF
:1008C000F8FE08226049A820FFF70FFF0120FFF77C
:1008D00017FD21785DA002F065FC0021E220FFF702
:1008E00036FF0021E120FFF732FF70212720FFF7BC
:1008F0002EFF012070BD00B587B056A103C9CDE918
:10090000050156A00068049055A103C9CDE9020174
:1009100055A00068019055A0006800904FF4004178
:100920003F4801F004F85A215320FFF710FFA5219A
:100930005320FFF70CFF0021E220FFF708FF002102
:10094000E120FFF704FF70212720FFF700FF0121BE
:100950002220FFF7FCFE03212320FFF7F8FE4E21A3
:100960002520FFF7F4FE08213120FFF7F0FE0522D5
:100970003F493020FFF7B9FE05223D492A20FFF705
:10098000B4FE052205A93F20FFF7AFFE062202A90B
:100990003A20FFF7AAFE012201A93920FFF7A5FEA0
:1009A000032204A93E20FFF7A0FE032269463B2054
:1009B000FFF79BFE00213C20FFF7C9FE15212620F2
:1009C000FFF7C5FE73215020FFF7C1FE032124204D
:1009D000FFF7BDFE01212120FFF7B9FE02213D20D6
:1009E000FFF7B5FE07B000BD10B588B0044621A1E1
:1009F00003C9CDE9060119A0006805901FA103C92C
:100A0000CDE903011FA00068029018A000680190C2
:100A10004FF40041024800F08AFF5A21532033E08E
:100A200000080140C2C2C2C2C200000073746174F7
:100A300075733A25640A0000290000203833000845
:100A400061613A25640A00002A00002062623A25AA
:100A5000640A00002AEC6F9C46000000F6375D0037
:100A6000D521EF2C5A400000010000000BDF0200EE
:100A7000240000200A6D679C460000004521EFAC71
:100A80005A500000E1000000FFF761FEA52153204D
:100A9000FFF75DFEC820FFF733FC21462520FFF756
:100AA00056FE15212620FFF752FE052206A93F20FB
:100AB000FFF71BFE062203A93A20FFF716FE0122CC
:100AC00002A93920FFF711FE032205A93E20FFF7F6
:100AD0000CFE032201A93B20FFF707FE0520FFF7CC
:100AE0000FFC08B010BD0000014600BF704770B594
:100AF00004460D46CD480088E1B2CC4802F0D4F956
:100B000000BF4021C94802F03DFA0128F9D1204632
:100B100070BD08B54FF4E06000F08CFD25208DF825
:100B2000000000208DF801008DF8020001208DF8F2
:100B30000300684600F083FD08BD10B586B004468A
:100B4000012144F2040001F000F94FF40070ADF807
:100B5000140003208DF8160018208DF8170005A941
:100B6000B34800F035FE4FF48060ADF81400032068
:100B70008DF8160004208DF8170005A9AC4800F088
:100B800027FE01940020ADF80800ADF80A00ADF88A
:100B90000C00ADF810000C20ADF80E0001A9A34820
:100BA00002F089F80121A14802F011F906B010BD48
:100BB00010B540F225519D4802F0FAF9E0B140F23B
:100BC00025519A4802F01EFA984802F071F99949A5
:100BD00009680870974801680068401C954A1060D1
:100BE00095480068814202D99448114608609348AC
:100BF000017893A002F0D6FA10BD0B2873D2DFE87B
:100C000000F09536517884666D907306070000BF3A
:100C10008A4909794FF47A7202EB81018A4A11817B
:100C2000864949794FF47A7202EB810286494A81FA
:100C3000824989794FF47A7202EB810282498A8172
:100C40007E49C9794FF47A7202EB81027E49CA81EA
:100C5000092805D1C98841F080017B4AD18005E08F
:100C60007949C98821F08001774AD1805FE07649CF
:100C7000897901F00101A1B97349C98841F00101E5
:100C8000714AD1801146C98821F08001D18040F29B
:100C9000DC5111810A466C494A818A814FF47A728B
:100CA000CA8144E06849897901F0010129B16649A6
:100CB000C98821F00101644AD1804FF47A71624AF7
:100CC00011810A4660494A818A81CA812FE05E49C2
:100CD000C98841F008015C4AD18028E05749097A67
:100CE000594A117423E021E05449497A564A517413
:100CF0001DE05549897901F0040129B95249C98893
:100D000041F00401504AD18011E04F49897901F046
:100D1000040129B14C49C98821F004014A4AD18013
:100D200005E04649897A484A917400E000BF00BF57
:100D3000704770B500250B26032404E03F48005D92
:100D40004540601CC4B2B442F8DB3C48805DA84218
:100D500003D13A49C878FFF750FF70BDF0B589B0AC
:100D60003648007800285DD034480078242803D025
:100D700000203249087052E0304840784D2804D0B5
:100D800000202E490870487049E02C4880783C28A3
:100D900005D0002029490870487088703FE0FFF7AF
:100DA000C8FF0020254908704870887026480089CF
:100DB000A0F57A7724484089A0F57A762248C08940
:100DC000A0F57A7520488089A0F57A741F480179CA
:100DD0006E23E01704EB90708010EA1705EB927217
:100DE0009210CDE90631CDE90420F01706EB9070A2
:100DF0008010F91707EB91718910144A5289124B30
:100E0000DB7CCDE90032CDE902101048B0F910309A
:100E1000B0F90E20B0F90C100D4802F0C3F90748E4
:100E20000449086009B0F0BD704700000038014077
:100E30000008014034000020380000209C00002001
:100E4000746869733A256400760000208A000020E7
:100E5000403300087FB501210D2000F076FF092006
:100E60008DF8080005208DF8090000208DF80A0093
:100E700001208DF80B0002A800F0E1FB17208DF88F
:100E8000080006208DF8090000208DF80A000120D6
:100E90008DF80B0002A800F0D2FBFC4CE514ADF875
:100EA0000C5048208DF80F0003208DF80E0003A988
:100EB000204600F08DFC0220ADF80C0048208DF893
:100EC0000F0003208DF80E0003A9204600F080FCDF
:100ED0000820ADF80C0048208DF80F0003208DF895
:100EE0000E0003A9204600F073FCA015ADF80C001D
:100EF00048208DF80F0003208DF80E0003A9E44868
:100F000000F066FC0321012000F078FD082000902D
:100F100000208DF804000C208DF8050001208DF8CC
:100F20000600684602F096F80821002000F066FDF1
:100F3000A015009000208DF804000C208DF805000D
:100F400001208DF80600684602F084F87FBD10B5D8
:100F5000082002F0E5F828B10120CE4908700820E9
:100F600002F0EFF810BD10B54FF4807002F0D8F821
:100F700028B10120C8490870000202F0E2F810BD53
:100F800010B50221C14800F0B6FC98B90120C34950
:100F90000870C3480078401CC149087008460078B2
:100FA0000F2873DD0A2008704FF48061B74800F005
:100FB000BEFC6BE0B9480078002864D0B8480078DF
:100FC000082860DD0020B54908704FF48061AF4803
:100FD00000F0ABFCB3484089B0F5C86F10DDB148F4
:100FE0000089B0F5C86F0BDDAE48C08840F0100036
:100FF000AC49C8800846C08820F02000C88032E094
:10100000A848807900F0100048B10120A649087076
:10101000A448C08820F01000A249C88023E0A1485D
:10102000807900F0200058B19E48C08820F0200050
:101030009C49C8800846C08820F08000C88012E023
:101040009848C08840F020009649C88040F2DC51A2
:10105000944841810846934908810146914881811D
:101060004FF47A71C1818F48C08820F001008D490A
:10107000C8800846C08820F00400C8800846C088A0
:1010800020F04000C880002085490870854880799C
:1010900000F0200020B98348807900F0100088B16A
:1010A00000207C4908707C4908708049087080499C
:1010B000087080490870804908708049087080492C
:1010C000087010BD4FF40061704800F014FC98B92E
:1010D0000120764908707B480078401C79490870E7
:1010E000084600780A281FDD0A2008704FF4806146
:1010F000664800F01CFC17E06C48007888B1714825
:10110000007808280DDD0020684908706548C0880F
:1011100040F008006349C8804FF480615B4800F0EC
:1011200004FC0020674908704FF48051574800F0D4
:10113000E2FB18B901205E49087008E05C480078BD
:1011400028B100205A49087001205649C8744FF44C
:1011500000514E4800F0CFFB18B9012055490870E6
:1011600008E05448007828B1002052490870022055
:101170004C49C8744FF48041444800F0BCFB18B996
:1011800001204D49087008E04B48007828B1002044
:101190004949087003204349C8744FF400413B4853
:1011A00000F0A9FB18B901204449087008E0434841
:1011B000007828B100204149087004203949C874DA
:1011C0004FF40071314800F096FB18B901203C49FA
:1011D000087017E03A480078A0B10020384908703C
:1011E0003048807900F0400030B12E48C08820F0AF
:1011F00040002C49C88005E02A48C08840F04000E3
:101200002849C8802348007810B92348007860B185
:101210002D480078401C2C490870084600780328A7
:1012200000DA4EE70020284908701A480078D0B14B
:101230000020184908701B48807900F0010030B187
:101240001848C08820F001001649C8800BE01548F6
:10125000C08940F27E41884205DA1248C08840F0D9
:1012600001001049C8800C48007870B100200A497C
:1012700008700C48807900F0040038B30948C08831
:1012800020F004000749C88027E026E0000C014058
:1012900000080140450000204700002044000020D5
:1012A0004E000020760000203C0000204600002078
:1012B00048000020490000204A0000204B00002088
:1012C0004C0000204F0000204D000020FFE70448A4
:1012D000C08840F004000249C88000BFF1E6000069
:1012E0007600002008B50121042000F02EFD012128
:1012F000082000F02AFD0121080300F026FDA020AF
:10130000ADF8000001208DF8020010208DF80300D8
:101310006946164800F05CFA4020ADF80000012054
:101320008DF8020004208DF8030069460F4800F094
:101330004FFA4FF40040ADF8000001208DF8020094
:1013400010208DF803006946084800F041FA10208B
:10135000ADF8000001208DF8020010208DF8030088
:101360006946024800F034FA08BD00000008014058
:1013700003E008212248FFF78FFAFAE7092000F07E
:10138000CCF800F053F81F4800684FF47A72B0FBB5
:10139000F2F1B1F1807F00D31DE021F07F40401ECB
:1013A0004FF0E022506150170F22002807DA130790
:1013B0001D0E154B00F00F04241F1D5503E01307ED
:1013C0001C0E124B1C5400BF00204FF0E022906115
:1013D0000720106100BF4FF4E130FFF7AEFB00F0D3
:1013E0006FF8FEF7ABFFFFF77DFFFFF784FAFFF71B
:1013F000E6F94FF40041064800F097FAFFF7B8FF0E
:10140000500000200000002018ED00E000E400E0A3
:1014100000080140704700BFFEE700BFFEE700BFC5
:10142000FEE700BFFEE770477047704700B585B024
:10143000684600F01DFC1F490098B0FBF1F01E4902
:10144000086005B000BD1D480068401C1B490860CD
:10145000704700BF194801684FF0E02082691748C3
:1014600000688142F6D11448006800EB4003C3EBEA
:10147000C010C2EBC000104B1B68B0FBF3F001EBD7
:101480004103C3EBC11300EBC300704730B5044602
:10149000FFF7DFFF054600BFFFF7DBFF401B04EB54
:1014A0004401C1EBC411B0EBC10FF5D330BD03480B
:1014B0000068704740420F00580000205C00002088
:1014C00010B5FFF787F8FFF724FB10BD0020544943
:1014D0000861C8601420486100208861C86108461E
:1014E000006840F001000860084640684D49084027
:1014F0004B494860084600684B4908404849086025
:101500000846006820F4802008600846406820F4FF
:10151000FE0048600020886070470146404800682F
:1015200040F001003E4A106010460068106010460E
:10153000006840F48020106000BF3948006800F067
:1015400002000028F9D036484268881E42EA8040EE
:10155000334A50601046406850601046006840F0C2
:101560008070106000BF2E48006800F000700028F6
:10157000F9D02B48406840F00200294A50608806A4
:10158000000E2A4A107010460078704700B50246D7
:101590000023FFF79BFF2248006840F48030204979
:1015A000086000BF1E480068400C0028FAD04FF4C5
:1015B00080601B494860901EC2B20846406840EAFD
:1015C000824048600846406840F4803048601848CF
:1015D000006840F03200164908601148006840F089
:1015E00080700F49086000BF0D480068400E002859
:1015F000FAD00B48406840F002000949486005E015
:1016000007484068C0F3870303F00303022BF7D1B8
:10161000901CC006000E054908700846007800BD01
:10162000001002400000FFF8FFFFF6FE60000020FF
:101630000020024031490143314A1160704770B5C2
:10164000002100230F22C47804B32D4C246804F435
:10165000E064C4F5E064210AC1F10403CA4044789F
:1016600004FA03F18478144021430901254C0678DB
:10167000A155047804F01F050124AC4005786D11D4
:10168000AD0005F1E025C5F8004109E0047804F05B
:101690001F050124AC401C4D0678761145F8264004
:1016A00070BD1A4A0A400243154B1B1F1A6070474F
:1016B00039B1134A121D12680243114B1B1D1A60E7
:1016C00006E00F4A121D126882430D4B1B1D1A6063
:1016D0007047042808D14FF0E021096941F0040166
:1016E0004FF0E022116107E04FF0E021096921F09D
:1016F00004014FF0E0221161704700000000FA057C
:101700000CED00E000E400E080E100E080FFFF1F5E
:1017100010B50446CC48844208D10121042000F0D1
:101720002EFB0021042000F02AFB46E0C74884423B
:1017300008D10121082000F022FB0021082000F040
:101740001EFB3AE0C248844208D10121102000F07B
:1017500016FB0021102000F012FB2EE0BD48844251
:1017600008D10121202000F00AFB0021202000F0F8
:1017700006FB22E0B848844208D10121402000F055
:10178000FEFA0021402000F0FAFA16E0B348844245
:1017900008D10121802000F0F2FA0021802000F021
:1017A000EEFA0AE0AE48844207D10121801500F02C
:1017B000E6FA0021A01500F0E2FA10BD10B50121F3
:1017C000084600F0DCFA0021012000F0D8FA10BD34
:1017D0002DE9F041024600250026002000230024C8
:1017E000002791F803C00CF00F0591F803C00CF02E
:1017F000100CBCF1000F03D091F802C04CEA0505B3
:1018000091F800C0BCF1000F31D0146800202BE02B
:101810004FF0010C0CFA00F3B1F800C00CEA03061B
:101820009E4220D183004FF00F0C0CFA03F7BC430B
:1018300005FA03FC4CEA040491F803C0BCF1280F3C
:1018400006D14FF0010C0CFA00FCC2F814C00AE0FB
:1018500091F803C0BCF1480F05D14FF0010C0CFA10
:1018600000FCC2F810C0401C0828D1D31460B1F8A5
:1018700000C0BCF1FF0F34DD546800202EE000F101
:10188000080C4FF0010808FA0CF3B1F800C00CEA9C
:1018900003069E4221D183004FF00F0C0CFA03F790
:1018A000BC4305FA03FC4CEA040491F803C0BCF104
:1018B000280F05D100F1080C08FA0CF8C2F81480C2
:1018C00091F803C0BCF1480F07D100F1080C4FF0AC
:1018D000010808FA0CF8C2F81080401C0828CED382
:1018E0005460BDE8F0814FF6FF71018002218170E4
:1018F0000421C17070470246002093680B400BB171
:10190000012000E0002070470146886880B27047DF
:1019100002460020D3680B400BB1012000E00020FC
:1019200070470146C86880B27047016170474161E5
:1019300070470AB1016100E041617047C1607047C2
:101940004FF480320A4382618161826182698269D7
:10195000704702460020434B18684FF680731840CA
:1019600040EA021008433F4B186070473E49C86187
:101970007047F0B50A46002300240021002500F03E
:101980000046B6F1004F02D1364EF16901E0354E06
:101990007168C0F3034583B200F44016B6F5401FEA
:1019A00008D121F070612F4E766826F070662D4FB9
:1019B0007E6012E000F48016B6F5801F06D1032683
:1019C00006FA05F4A14341F0706106E0460D3601C8
:1019D00003FA06F6B14341F0706122B1460D3601BB
:1019E00003FA06F6314300F00046B6F1004F02D18B
:1019F0001C4EF16101E01B4E7160F0BD30B500225C
:101A00008B071C0F0F2303FA04F2164B08338C10BC
:101A100053F824309343134C08348D1044F8253088
:101A200023468C1053F824308C07240F00FA04F45A
:101A300023430C4C08348D1044F8253030BD0A493E
:101A4000DC3108607047000000080140000C0140D4
:101A5000001001400014014000180140001C01402A
:101A6000002001400000014000002042E0480068E2
:101A700040F00100DE49086008464068DD49084042
:101A8000DB49486008460068DB490840D8490860DF
:101A90000846006820F4802008600846406820F46A
:101AA000FE0048604FF41F0088607047D049096805
:101AB00021F48031CE4A11601146096821F4802159
:101AC0001160B0F5803F03D0B0F5802F0ED106E055
:101AD000C749096841F48031C54A116007E0C4492B
:101AE000096841F4A021C24A116000E000BF00BFB4
:101AF000704710B501460022002300204A11012A38
:101B000002D1BB4C236806E0022A02D1B84C236AFA
:101B100001E0B74C636A01F01F02012494401C40AD
:101B20000CB1012000E0002010BD38B5002000906D
:101B30000024002500BF3120FFF7DBFF0546009899
:101B4000401C00904FF6FF710098884201D0002D94
:101B5000F1D03120FFF7CDFF08B1012400E00024CF
:101B6000204638BD01460020A14A106820F0F80048
:101B700040EAC10010607047A04908607047024603
:101B800000209B4B586820F47C1042EA0103184364
:101B9000974B586070479949086670470146002086
:101BA000934A506820F00300084350607047904803
:101BB000406800F00C007047014600208C4A5068D5
:101BC00020F0F00008435060704701460020884A2A
:101BD000506820F4E06008435060704701460020E0
:101BE000834A506820F4605040EAC100506070475A
:101BF00029B17F4A527A02437D4B5A7204E07C4AF3
:101C0000527A82437A4B5A7270477C49D8310860C5
:101C1000704701460020764A506820F4404008434F
:101C2000506070470021724A20321170704A82F869
:101C30002010012802D004280AD104E001216C4AB6
:101C40002032117005E00521694A2032117000E050
:101C500000BF00BF70476A49086070476449096A5D
:101C60000143634A1162704765494439086070470F
:101C700030B500210022002400235D4D6D6805F081
:101C80000C0121B1042905D0082923D105E05D4DBF
:101C9000056022E05B4D05601FE0554D6D6805F461
:101CA0007012534D6D6805F48034022505EB9242A5
:101CB0001CB9554D554305600BE04D4D6D6805F45D
:101CC00000351DB1504D5543056002E04D4D554363
:101CD000056002E04B4D056000BF00BF444D6D68DC
:101CE00005F0F0010909494D6B5C0568DD40456070
:101CF0003F4D6D6805F4E061090A444D6B5C456831
:101D0000DD4085603A4D6D6805F46051C90A3F4D6C
:101D10006B5C4568DD40C560354D6D6805F440413C
:101D2000890B3B4D6B5CC568B5FBF3F5056130BDB8
:101D300029B12F4A526902432D4B5A6104E02C4AC3
:101D4000526982432A4B5A61704729B1284A9269E5
:101D50000243274B9A6104E0254A92698243244B4F
:101D60009A61704729B1224AD2690243204BDA6155
:101D700004E01F4AD26982431D4BDA61704729B1E2
:101D80001B4AD26802431A4BDA6004E0184AD26850
:101D90008243174BDA60704729B1154A1269024332
:101DA000134B1A6104E0124A12698243104B1A6104
:101DB000704713494039086070471049C86470473C
:101DC0000B49C87170470A48406A40F08070084962
:101DD0004862704701460020054A92680A400AB1ED
:101DE000012000E000207047014988727047000020
:101DF000001002400000FFF8FFFFF6FE0000424224
:101E00008004424200127A0000093D006100002077
:101E10007100002010B50446FE48844208D101211B
:101E2000C014FFF7ACFF0021E014FFF7A8FFC4E0E7
:101E3000B4F1804F08D101210846FFF7ADFF002122
:101E40000120FFF7A9FFB8E0F348844208D101213F
:101E50000220FFF7A1FF00210220FFF79DFFACE069
:101E6000EE48844208D101210420FFF795FF0021AC
:101E70000420FFF791FFA0E0E948844208D1012146
:101E80000820FFF789FF00210820FFF785FF94E075
:101E9000E448844208D101211020FFF77DFF002192
:101EA0001020FFF779FF88E0DF48844208D1012144
:101EB0002020FFF771FF00212020FFF76DFF7CE05D
:101EC000DA48844208D101214014FFF758FF00216D
:101ED0006014FFF754FF70E0D548844209D1012116
:101EE000C804FFF74CFF00214FF40020FFF747FF25
:101EF00063E0D048844209D101210805FFF73FFF84
:101F000000214FF48010FFF73AFF56E0CA488442A0
:101F100009D101214805FFF732FF00214FF40010DD
:101F2000FFF72DFF49E0C548844208D10121402038
:101F3000FFF732FF00214020FFF72EFF3DE0C048B1
:101F4000844208D101218020FFF726FF0021802054
:101F5000FFF722FF31E0BB48844208D10121801500
:101F6000FFF71AFF0021A015FFF716FF25E0B6487E
:101F7000844209D101210804FFF701FF00214FF439
:101F80008030FFF7FCFE18E0B048844209D10121FF
:101F90004804FFF7F4FE00214FF40030FFF7EFFE96
:101FA0000BE0AB48844208D101218804FFF7E7FE2B
:101FB00000214FF48020FFF7E2FE10BD00220288CE
:101FC000944B98420ED0994B98420BD0B0F1804F71
:101FD00008D0914B984205D0904B984202D0904B3C
:101FE000984204D14FF68F731A404B881A438D4B99
:101FF000984207D08C4B984204D04FF6FF431A40CA
:10200000CB881A4302808B8883850B880385814B9C
:1020100098420BD0854B984208D08B4B984205D004
:102020008A4B984202D08A4B984201D10B7A0386A0
:1020300001238382704770B5002400220023058CA1
:102040004FF6FE7635400584028C8388048B4FF66C
:102050008F752C40B51E2C400D882C43751E2A40D0
:102060000D892A434D882A436A4DA8420BD06F4DF3
:10207000A84208D0744DA84205D0744DA84202D0A1
:10208000734DA84213D14FF6F7752A404D892A4364
:102090004FF6FB752A408D882A434FF6FF652B408B
:1020A0004FF6FF552B408D892B43CD892B438380E1
:1020B0000483CD888586028470BD70B5002400221B
:1020C0000023058C4FF6EF7635400584028C83881B
:1020D000048B48F6FF752C404FF6FF452C400D88C9
:1020E0004FF6FF7606EA05252C434FF6DF752A40AA
:1020F0000D8906EA05152A434D8806EA05152A4387
:10210000444DA84202D0494DA8421DD14FF67F75DB
:102110002A404D894FF6FF7606EA05152A434FF609
:10212000BF752A408D8806EA05152A434FF6FF350C
:102130002B404FF2FF752B408D8906EA85052B4316
:10214000CD8906EA85052B4383800483CD880587E6
:10215000028470BD70B5002400220023058C4FF668
:10216000FF6635400584028C8388848B4FF68F751B
:102170002C404FF6FC752C400D882C434FF6FF5534
:102180002A400D894FF6FF7606EA05252A434D8839
:1021900006EA05252A431F4DA84202D0234DA84236
:1021A0001DD14FF2FF752A404D894FF6FF7606EAA2
:1021B00005252A434FF6FF352A408D8806EA052576
:1021C0002A434EF6FF752B404DF6FF752B408D8947
:1021D00006EA05152B43CD8906EA05152B438380B6
:1021E0008483CD888587028470BD70B5002200236A
:1021F0000024058C4EF6FF7635400584038C8488D8
:10220000828B48F6FF752A404FF6FF452A400D881D
:1022100020E00000002C01400004004000080040C5
:10222000000C004000100040001400400034014049
:10223000004C014000500140005401400018004093
:10224000001C0040002000400040014000440140CC
:10225000004801404FF6FF7606EA05252A434DF671
:10226000FF752B400D8906EA05352B434D8806EA9C
:1022700005352B43FA4DA84202D0FA4DA84208D1A9
:102280004BF6FF752C408D894FF6FF7606EA8515D3
:102290002C4384808283CD88A0F84050038470BD95
:1022A000828B4FF2FF331A408283828B4FF6FF738B
:1022B00003EA01231A4382837047F0B50C461546A2
:1022C000002200210026078C4EF6FF7C07EA0C074F
:1022D0000784828B018C4FF6FF7707EA043640F6BD
:1022E000FF473A404FF6FF7707EA05273A434FF694
:1022F000FF7707EA03373A43D94FB8420ED0D94F98
:10230000B8420BD0B0F1804F08D0D74FB84205D0BB
:10231000D64FB84202D0D64FB84206D14DF6FF771D
:10232000394046F48057394305E047F6FF573940B6
:1023300044F48057394382830184F0BD828B4FF689
:10234000F3731A408283828B0A4382837047F0B50D
:102350000C461546002200210026078C4FF6FF6C24
:1023600007EA0C070784828B018C4FF6FF7707EA98
:1023700004264FF60C773A404FF6FF7707EA03172B
:102380002F433A43B64FB8420ED0B64FB8420BD0A7
:10239000B0F1804F08D0B44FB84205D0B34FB84227
:1023A00002D0B34FB84206D14FF6FF57394046F43A
:1023B0008077394305E04FF2FF57394044F4807786
:1023C000394382830184F0BD028B4FF2FF331A4000
:1023D0000283028B4FF6FF7303EA01231A43028341
:1023E0007047F0B50C461546002200210026078CE8
:1023F0004FF6EF7C07EA0C070784028B018C4FF63F
:10240000FF7707EA041640F6FF473A404FF6FF779A
:1024100007EA03373A434FF6FF7707EA05273A43BF
:102420008F4FB8420ED08F4FB8420BD0B0F1804FD3
:1024300008D08D4FB84205D08C4FB84202D08C4F97
:10244000B84206D14FF6DF77394046F010073943DE
:1024500005E04FF65F77394044F0100739430283B7
:102460000184F0BD028B4FF6F3731A400283028B96
:102470000A4302837047F0B50C461546002200213E
:10248000068C4FF6FE773E400684028B018C4FF699
:102490000C7632407E1C06EA03162E433243704E01
:1024A000B0420ED06F4EB0420BD0B0F1804F08D08A
:1024B0006D4EB04205D06D4EB04202D06C4EB0426F
:1024C00006D14FF6FD76314044F00106314305E078
:1024D0004FF6F576314044F0010631430283018422
:1024E000F0BD70B505460C465D4885420ED05D488E
:1024F00085420BD0B5F1804F08D05B48854205D0AE
:102500005A48854202D05A48854200D100E000BFB7
:10251000208850B92389A28861882846FFF7ABFF3D
:10252000E1882846FFF79EFF25E0208804280AD18D
:102530002389A28861882846FFF753FFE18828464F
:10254000FFF742FF17E0208808280AD12389A288D4
:1025500061882846FFF7FBFEE1882846FFF7EEFE7C
:1025600009E02389A28861882846FFF7A6FEE18852
:102570002846FFF795FE70BD2DE9F04105460C4653
:1025800000260127608808B9022600E00026A088FE
:10259000012801D1022700E001272088A0B9238962
:1025A000A28861882846FFF766FFE1882846FFF782
:1025B00059FF23893A4631462846FFF712FFE18842
:1025C0002846FFF701FF13E02389A2886188284687
:1025D000FFF707FFE1882846FFF7F6FE23893A4612
:1025E00031462846FFF747FFE1882846FFF73AFFC4
:1025F000BDE8F0810A884B881A438B881A43CB8840
:102600001A430B891A434B891A438B891A43A0F842
:10261000442070474FF6FF71818000210180C18006
:102620004180017270470021018041808180C1801A
:10263000018141818181C1817047002101804180F8
:10264000012181800021C18001817047002101802A
:1026500041808180C180018141818181704700007A
:10266000002C0140003401400004004000080040FC
:10267000000C004021B1028842F00102028004E017
:1026800002884FF6FE731A400280704731B1B0F8ED
:10269000442042F40042A0F8442005E0B0F8442071
:1026A000C2F30E02A0F8442070471AB183890B438D
:1026B000838102E083898B438381704781827047E5
:1026C00041EA0203A0F8483070471AB183890B43EE
:1026D000838102E083898B438381704701894FF6B0
:1026E000F8721140018170470A46002101894FF6B6
:1026F0008F73194011430181704730B504460D4670
:1027000029462046FFF7F0FF208940F0070020818E
:1027100030BD2DE9F04104460D4616461F46602D9A
:1027200006D13B46012231462046FFF75AFE05E01E
:102730003B46012231462046FFF79DFE29462046B2
:10274000FFF7D2FF208940F007002081BDE8F0812B
:1027500030B50C4600210189C9B24FF6FF7505EA74
:102760000325154325432943018130BD2DE9F0415F
:1027700005460E4617469846002443463A463146DB
:102780002846FFF7E5FF2C894FF6F870044044F027
:1027900007044FF68F70044044F070042C81BDE8AC
:1027A000F081F0B504460D4616461F463B463246BC
:1027B00029462046FFF7CCFF208940F48040208145
:1027C000F0BD0185828270470A46002101884FF6DC
:1027D0008F731940114301807047F0B50C461546C0
:1027E0001E460021002200230189028B038C4FF634
:1027F000F877394021434FF6FC473A4040F2011741
:102800003A434FF6DD773B404FF6FF7707EA06176E
:102810002F433B43018102830384F0BD0A4600211C
:10282000018B4FF68F7319401143018370470A469D
:102830000021018B48F6FF7319404FF6FF7303EA3E
:1028400002231943018370470A460021818B4FF60A
:102850008F7319401143818370470A460021818B91
:1028600048F6FF7319404FF6FF7303EA022319433A
:102870008183704721B1028842F08002028004E027
:1028800002884FF67F731A400280704721B1828818
:1028900042F00402828004E082884FF6FB731A4003
:1028A0008280704721B1828842F00802828004E071
:1028B00082884FF6F7731A408280704721B1828870
:1028C00042F00102828004E082884FF6FE731A40D3
:1028D000828070470A460021018B4FF6F77319403A
:1028E0001143018370470A460021018B4FF2FF73A9
:1028F00019404FF6FF7303EA02231943018370471F
:102900000A460021818B4FF6F773194011438183EA
:1029100070470A460021818B4FF2FF7319404FF632
:10292000FF7303EA02231943818370470A4600219B
:10293000018B4FF6FB7319401143018370470A4620
:102940000021018B4FF6FF3319404FF6FF7303EA66
:1029500002231943018370470A460021818B4FF6F9
:10296000FB7319401143818370470A460021818B14
:102970004FF6FF3319404FF6FF7303EA0223194362
:10298000818370470A460021018B4FF67F731940FF
:102990001143018370470A460021018BC1F30E01E8
:1029A0004FF6FF7303EA02231943018370470A4677
:1029B0000021818B4FF67F7319401143818370474B
:1029C0000A460021818BC1F30E014FF6FF7303EA23
:1029D00002231943818370470A460021018C4FF678
:1029E000FD7319401143018470470A460021018C90
:1029F0004FF6F77319401143018470470A460021CE
:102A0000018C4FF6DF7319404FF6FF7303EA021390
:102A10001943018470470A460021018C4FF67F73E9
:102A200019404FF6FF7303EA0213194301847047FC
:102A30000A460021018C4FF6FF5319404FF6FF73F1
:102A400003EA02231943018470470A460021018CDE
:102A50004FF2FF7319404FF6FF7303EA0223194345
:102A6000018470470A460021018C4DF6FF7319401E
:102A70004FF6FF7303EA023319430184704730B500
:102A8000002301248C40A3B2048C9C430484048C56
:102A900002FA01F5ADB22C43048430BD30B50023F9
:102AA00004248C40A3B2048C9C430484048C02FA5A
:102AB00001F5ADB22C43048430BD70B5034600204F
:102AC00000241846183001258D40ACB21D8CA5435A
:102AD0001D8409B1082909D100EB6100056825F0C2
:102AE000700505600568154305600EE00D1FC5F310
:102AF0004E052844056825F4E045056005684FF655
:102B0000FF7606EA02263543056070BD21B10288D2
:102B100042F00202028004E002884FF6FD731A4080
:102B20000280704721B1028842F00402028004E072
:102B300002884FF6FB731A400280704721B18288E9
:102B400042F08002828004E082884FF67F731A4050
:102B50008280704702884FF6F7731A40028002881D
:102B60000A430280704782884FF68F731A40828032
:102B700082880A438280704702894FF6F8731A40B0
:102B8000028102890A430281704702894FF67F73EE
:102B90001A40028102890A4302817047818470478A
:102BA00081857047818670470187704781877047AC
:102BB000A0F84010704702884FF6FF431A40028089
:102BC00002880A43028070470146888E704701469A
:102BD000088F70470146888F70470146B1F8400062
:102BE00070470146888C70470146088D7047024641
:102BF0000020138A0B400BB1012000E00020704739
:102C0000CA430282704730B50246002000230024E8
:102C1000158A05EA0103958905EA010413B10CB18F
:102C2000012000E0002030BDCA430282704700004E
:102C300010B50446FB48844209D101218803FFF7FF
:102C40009EF800214FF48040FFF799F832E0F648F3
:102C5000844209D101214804FFF79EF800214FF476
:102C60000030FFF799F825E0F048844209D10121AE
:102C70008804FFF791F800214FF48020FFF78CF8CB
:102C800018E0EB48844209D10121C804FFF784F819
:102C900000214FF40020FFF77FF80BE0E548844265
:102CA00008D101210805FFF777F800214FF48010C3
:102CB000FFF772F810BD2DE9F04786B005460E46C5
:102CC0000024A24600BFA1460027B08900B100BF82
:102CD0002F462C8A4CF6FF700440F08804432C8267
:102CE000AC894EF6F3100440B088318908437189ED
:102CF00008430443AC81AC8A4FF6FF400440B089DE
:102D00000443AC8201A8FEF7B3FFC648874202D154
:102D1000DDF810A001E0DDF80CA0A88900F4004067
:102D200040B10AEBCA0000EB0A1031684900B0FB61
:102D3000F1F807E00AEBCA0000EB0A1031688900DD
:102D4000B0FBF1F86420B8FBF0F004012009642125
:102D500001FB1089A88900F4004040B1322000EB4B
:102D6000C900B0FBF1F000F00700044308E0322096
:102D700000EB09106421B0FBF1F000F00F000443F8
:102D80002C8106B0BDE8F0874FF416510160002198
:102D90008180C18001810C214181002181817047A6
:102DA00010B502460020108A4FF2FF0318400B882E
:102DB0004C8823438C882343CC88234318431082B8
:102DC00010BD0021018041808180C180704721B108
:102DD000828942F40052828104E082894DF6FF73B9
:102DE0001A4082817047F0B5034600240026002572
:102DF000002040F66A17B94200D100BF1846C1F35F
:102E0000421401F01F06012707FA06F5012C01D133
:102E10000C3004E0022C01D1103000E014301AB163
:102E200007682F43076002E00768AF430760F0BD03
:102E30001AB1838A0B43838202E0838A8B438382A5
:102E40007047028A4FF6F0731A400282028A0A43E0
:102E50000282704782894FF2FF731A408281828911
:102E60000A438281704721B1828942F00202828145
:102E700004E082894FF6FD731A4082817047028A0E
:102E80004FF6DF731A400282028A0A4302827047B9
:102E900021B1028A42F48042028204E0028A4BF6A7
:102EA000FF731A4002827047C1F3080282807047A4
:102EB00001468888C0F308007047818941F001010C
:102EC00081817047028BD2B20283028B42EA0122D7
:102ED00002837047028B02F47F420283028B0A4313
:102EE0000283704721B1828A42F02002828204E08C
:102EF000828A4FF6DF731A408282704721B1828A3C
:102F000042F01002828204E0828A4FF6EF731A4088
:102F10008282704721B1828A42F00802828204E0F4
:102F2000828A4FF6F7731A408282704721B18289F4
:102F300042F40042828103E08289C2F30E02828160
:102F4000704721B1828A42F40062828204E0828A60
:102F50004FF2FF731A4082827047828A4FF6FB73EA
:102F60001A408282828A0A438282704721B1828A11
:102F700042F00202828204E0828A4FF6FD731A4018
:102F80008282704702460020B1F5007F00D100BF69
:102F900013880B400BB1012000E00020704701F4C2
:102FA0000072B2F5007F00D100BFCA4302807047B3
:102FB00070B50246002400230025002040F66A1662
:102FC000B14200D100BFC1F3421501F01F03012639
:102FD00006FA03F3012D02D19689334006E0022D53
:102FE00002D1168A334001E0968A33400C12012642
:102FF00006FA04F41688344013B10CB1012000E045
:10300000002070BD10B50022002340F66A14A142D2
:1030100000D100BF0A1201249440A3B2DC43048013
:1030200010BD00000038014000440040004800404E
:10303000004C004000500040002044490860091D39
:103040000860091D0860091D086041483F491431A6
:103050000860704700213D498279002A3AD00A462B
:10306000126803689A430B461A600A1D12680368C7
:103070009A430B1D1A60027911440A6803681A43C7
:103080000A60324A0832126803689A432F4B0833A9
:103090001A601A1D126803689A432C4B0C331A608D
:1030A0004279102A0ED11A1F126803681A43274B5F
:1030B00008331A601A1D126803681A43234B0C3335
:1030C0001A600DE02149427911440A6803681A43E5
:1030D0000A6005E0027911440A6803689A430A60AD
:1030E00070470021016001710C2141710021817143
:1030F00070471649103109680143144A10321160B3
:10310000704701460020114A143212680A400AB181
:10311000012000E0002070470C491431086070471E
:10312000014600200022094B1B6803EA0102074BFD
:1031300014331B680B4013B10AB1012000E00020DA
:1031400070470249143108607047000000040140D4
:10315000FFFF0F0030B50B4601460020202201245E
:1031600009E021FA02F59D4205D303FA02F5491B55
:1031700004FA02F52844151EA2F10102F1DC30BD6B
:10318000064C074D06E0E06840F0010394E80700B4
:1031900098471034AC42F6D3FCF7ACFFD4330008A8
:1031A000F43300080FB4054B10B503A9044A029884
:1031B00000F018F810BC5DF814FB0000EF0A0008DE
:1031C0004000002002E008C8121F08C1002AFAD1FE
:1031D00070477047002001E001C1121F002AFBD197
:1031E000704700002DE9FF4F89B09B46044600253B
:1031F00006E025280BD05A460B999047641C6D1C9D
:1032000020780028F5D10DB02846BDE8F08F0027C2
:10321000B8460122474900E0074314F8013F203B2C
:1032200002FA03F00842F7D120782E2819D114F8B9
:10323000010F47F004072A280ED06FF02F022078E4
:10324000A0F1300109290CD808EB880102EB4101FB
:1032500000EB0108641CF2E70A98641C50F8048B28
:103260000A9020780028CED0642808D0692806D09B
:1032700075281ED05A460B9990476D1C58E00A9944
:103280004FF00A0901C90A91002802DA40422D21B3
:1032900002E0390504D52B218DF82010012103E02F
:1032A000F90704D02021F7E78A4608AE0DE0002197
:1032B000FAE70A994FF00A0901C90A91F7E7494666
:1032C000FFF748FF303106F8011D0028F7D1ADEBBC
:1032D000060000F12009780701D44FF00108C84525
:1032E00002DDA8EB090000E000208046002706E090
:1032F00008A85A46C05D0B9990476D1C7F1C574526
:10330000F6DB04E030205A460B9990476D1CB8F16B
:103310000001A8F10108F5DC05E016F8010B5A469A
:103320000B9990476D1CB9F10001A9F10109F4DC7A
:10333000641C65E709280100FF0000000000000090
:103340007B22726F6C6C223A222564222C227069D7
:10335000746368223A222564222C22796177223A0A
:10336000222564222C226B6579223A222564222CA4
:1033700022766F6C74616765223A222564222C22C2
:10338000726F6C6C537469636B223A222564222C31
:10339000227069746368537469636B223A222564EE
:1033A000222C22746872537469636B223A2225645A
:1033B000222C22796177537469636B223A22256447
:1033C000222C2252564656223A2225642564227D1A
:1033D00000000000F4330008000000209C00000002
:1033E000C4310008903400089C00002084040000D0
:1033F000D431000800512502000000000000000048
:103400000102030406070809000000000000000094
:103410000000000000000000C0C0C0C0C000FF00ED
:1034200000000000000000009C00002000010020BF
:10343000010000000000000000000000000000008B
:103440000000000000333400000000000000000015
:10345000000000000000000000010203040102035C
:1034600004060708090204060800244D3C000E006B
:103470000000DC05DC05DC05E8030000000031315C
:103480003100FF000000000000000000000000000C
:04000005080002DD10
:00000001FF
